:020000040000FA
:4000000000100020110000005D1300005D13000080B500AF01F0A6F980B500AF1C4B1C4A12688021C9020A431A60182001F096FA174B174A126817490A401A60164B174AF1
:400040001A60174B10221A60164B20221A60164B30221A60154B21221A60154B822212061A600B4B00221A60124B134A1A60134B134A1A60134B144A1A60144B144A1A6033
:40008000144B154A1A60154B00221A60BD4680BD00010B40FFFFFBFF04010B40060000801C02024020020240240202403002024008010B40000002400E000080400002406C
:4000C0005F09008080000240BF5D008004000240F301008044000240DF0100C00C020B4080B582B000AF72B64B4B01221A70FB1D00221A7023E0FB1D1A78131C5B009B1852
:400100005B00464A9B183B603B681A78597809020A43997809040A43DB781B061343191C3B681A795B791B0213439BB2081C191C01F096F9FB1D1A78FB1D01321A70FB1D84
:400140001B78012BD7D9364A364B101C191C01F097F9354B802252001A80344B01221A70334BC02292021A60324BEE2212021A60314B324A1A60324BA82292031A60314B26
:40018000992212041A60304B882212061A602F4B802252041A602E4B992212041A602D4B7D221A602C4B7E221A602C4A2B4B1B78DBB202210B43DBB21370294A284B1B7865
:4001C000DBB23C218B43DBB214210B43DBB21370224A224B1B78DBB216210B43DBB21370204B07221A60204B92221A601F4B10221A601F4BC022D2011A601E4BA0221A609E
:400200001D4BD82212011A60FFF706FF01F078F9BD4602B080BDC0461C700F400C3D0000183D0000403D000000600F4002600F40080001400C00014010500F400400990042
:4002400014500F4020500F4024500F4028500F4030500F402000004000800F4000700F4001700F4000010440080104400002044008020440180204400803044010B5064C1B
:400280002378002B07D1054B002B02D0044800E000BF0123237010BDE000002000000000E83C000008B5084B002B03D00748084900E000BF07480368002B00D108BD064BA7
:4002C000002BFBD09847F9E700000000E83C0000E4000020C80000200000000080B500AF01F088FD002001F005FD031C9AB2064B1B889BB2D3189BB29AB2034B1A80034B66
:4003000001221A70BD4680BD280100202A01002080B500AF034B02221A70034B01221A70BD4680BD260100202401002080B500AF02F0E4F802F0CEF8BD4680BD80B500AF07
:40034000024B06221A70BD4680BDC0462601002080B500AF024B08221A70BD4680BDC0462601002080B500AF024B0C221A70BD4680BDC0462601002080B500AF0E2001F006
:40038000E3F9DB4B181C02F027F9DA4B181C02F0BFF8D94B181C01F0FFFFD84B181C02F053F8D74B181C02F043FA62B6FA235B00181C01F087FAD34B00221A70D24B002254
:4003C0001A7001F089FD002001F00AFFCD4B1B78DBB2072BFAD89A00CC4BD3181B689F46022001F0FDFEFF231B020020191C012200F028FDFF231B020120191C012200F020
:4004000021FDFF231B020220191C012200F01AFDFF231B020320191C012200F013FDFF231B020420191C012200F00CFDFF231B020520191C012200F005FDAF235B00181C61
:4004400001F040FA0020FF21012200F0FBFC0120FF21012200F0F6FC0220FF21012200F0F1FC0320FF21012200F0ECFC0420FF21012200F0E7FC0520FF21012200F0E2FCD1
:40048000AF235B00181C01F01DFAFF231B040020191C012200F0D6FCFF231B040120191C012200F0CFFCFF231B040220191C012200F0C8FCFF231B040320191C012200F0C8
:4004C000C1FCFF231B040420191C012200F0BAFCFF231B040520191C012200F0B3FCAF235B00181C01F0EEF90020FF21012200F0A9FC0120FF21012200F0A4FC0220FF2118
:40050000012200F09FFC0320FF21012200F09AFC0420FF21012200F095FC0520FF21012200F090FC7A4B181C01F0CCF9002001F057FE744B01221A70734B01221A7000F079
:40054000FBFB02F051F9031E25D11BE0714BDB8801339AB26F4BDA806E4BDB88642B0ED9684B02221A70684B04221A70694B0022DA8002F047F901F0C1FFC0462AE00A20E1
:4005800001F0A0F902F030F9031E23D1614BDB88C72BDBD91EE000F0D7FB01F035FC5E4B1B78002B01D000F0E3FB00F075FC00F0CFFD00F03BFE02F053F801F0EFFF6420FE
:4005C00001F080F9504B03221A704E4B03221A7000F0B2FB00F0B0FB4B4B1B78DBB2042B14D101F081FF002001F098FD012001F0B1FCC04601F0FEFC031EFBD002F0A6F9B9
:40060000414B05221A7001F095F995E394E33E4B1B78DBB2062B0BD002DC032B05D08BE3082B1DD00C2B33D086E300F0FFFDA0E0384B9B78002B03D1324B04221A7002E038
:40064000304B06221A70334B9B780133DAB2314B9A70304BDB780133DAB22E4BDA7088E02C4BDB78002B03D1264B05221A7002E0244B06221A70274B9B780133DAB2254B1A
:400680009A70244BDB780133DAB2224BDA7070E0204B1B79012B41D1FF231B020020191C012200F0CFFBFF231B020120191C012200F0C8FBFF231B020220191C012200F0E5
:4006C000C1FBFF231B020320191C012200F0BAFBFF231B020420191C012200F0B3FBFF231B020520191C012200F0ACFB40E0C0463D030000510300006503000011030000FD
:400700002D0300002401002026010020EC3C0000EE0200001C01002027010020FF231B040020191C012200F08DFBFF231B040120191C012200F086FBFF231B040220191C6C
:40074000012200F07FFBFF231B040320191C012200F078FBFF231B040420191C012200F071FBFF231B040520191C012200F06AFBC046E1E2A94B1B78022B2DD1FF231B04E5
:400780000020191C012200F05DFBFF231B040120191C012200F056FBFF231B040220191C012200F04FFBFF231B040320191C012200F048FBFF231B040420191C012200F0ED
:4007C00041FBFF231B040520191C012200F03AFB924B02221A712CE0FF231B020020191C012200F02FFBFF231B020120191C012200F028FBFF231B020220191C012200F0FD
:4008000021FBFF231B020320191C012200F01AFBFF231B020420191C012200F013FBFF231B020520191C012200F00CFB7B4B01221A717B4B07221A707A4B07221A707BE2AF
:40084000764B5B78022B2DD1FF231B040020191C012200F0F7FAFF231B040120191C012200F0F0FAFF231B040220191C012200F0E9FAFF231B040320191C012200F0E2FA75
:40088000FF231B040420191C012200F0DBFAFF231B040520191C012200F0D4FA5F4B02221A712CE0FF231B020020191C012200F0C9FAFF231B020120191C012200F0C2FA07
:4008C000FF231B020220191C012200F0BBFAFF231B020320191C012200F0B4FAFF231B020420191C012200F0ADFAFF231B020520191C012200F0A6FA484B01221A71484BD0
:4009000009221A70474B07221A7015E2444B1B78DBB2072B09D0424B1B78DBB2092B04D03F4B1B78DBB20A2B09D101F0A3FE01F03FFE01F0EBFE3A4B0B221A7014E0384B51
:400940001B78DBB20C2B0FD101F09EFE01F03AFE01F086FE01F022FE01F0EAFE304B0C221A70304B03221A702C4B1B79012B2AD1FF231B020020191C012200F063FAFF2376
:400980001B020120191C012200F05CFAFF231B020220191C012200F055FAFF231B020320191C012200F04EFAFF231B020420191C012200F047FAFF231B020520191C0122C9
:4009C00000F040FAB8E1FF231B040020191C012200F038FAFF231B040120191C012200F031FAFF231B040220191C012200F02AFAFF231B040320191C012200F023FAFF23CA
:400A00001B040420191C012200F01CFAFF231B040520191C012200F015FA8DE11C0100202601002024010020C44B1B79012B00D0C0E096235B00181C00F044FF002001F056
:400A40006DFB012001F086FAC04601F0D3FA031EFBD096235B00181C00F034FFFF231B040020191C012200F0EDF9FF231B040120191C012200F0E6F9FF231B040220191CB1
:400A8000012200F0DFF9FF231B040320191C012200F0D8F9FF231B040420191C012200F0D1F9FF231B040520191C012200F0CAF996235B00181C00F005FF002001F02EFB70
:400AC000012001F047FAC04601F094FA031EFBD096235B00181C00F0F5FEFF231B040020191C012200F0AEF9FF231B040120191C012200F0A7F9FF231B040220191C0122B2
:400B000000F0A0F9FF231B040320191C012200F099F9FF231B040420191C012200F092F9FF231B040520191C012200F08BF996235B00181C00F0C6FE002001F0EFFA01206D
:400B400001F008FAC04601F055FA031EFBD096235B00181C00F0B6FEFF231B040020191C012200F06FF9FF231B040120191C012200F068F9FF231B040220191C012200F09D
:400B800061F9FF231B040320191C012200F05AF9FF231B040420191C012200F053F9FF231B040520191C012200F04CF9634B02221A71BAE0002001F0B1FA012001F0CAF968
:400BC000C04601F017FA031EFBD096235B00181C00F078FEFF231B020020191C012200F031F9FF231B020120191C012200F02AF9FF231B020220191C012200F023F9FF23D0
:400C00001B020320191C012200F01CF9FF231B020420191C012200F015F9FF231B020520191C012200F00EF996235B00181C00F049FE002001F072FA012001F08BF9C04613
:400C400001F0D8F9031EFBD096235B00181C00F039FEFF231B020020191C012200F0F2F8FF231B020120191C012200F0EBF8FF231B020220191C012200F0E4F8FF231B0277
:400C80000320191C012200F0DDF8FF231B020420191C012200F0D6F8FF231B020520191C012200F0CFF896235B00181C00F00AFE002001F033FA012001F04CF9C04601F03C
:400CC00099F9031EFBD096235B00181C00F0FAFDFF231B020020191C012200F0B3F8FF231B020120191C012200F0ACF8FF231B020220191C012200F0A5F8FF231B02032001
:400D0000191C012200F09EF8FF231B020420191C012200F097F8FF231B020520191C012200F090F8054B01221A71054B0A221A70044B07221A70C046FFF748FB1C010020E5
:400D4000260100202401002080B500AF074B00221A70064B00225A70044B00229A70034B0022DA70C046BD4680BDC0461C01002080B500AF002001F0D1F9012001F0EAF857
:400D8000C04601F037F9031EFBD0C8235B00181C00F098FD2A4B0520191C002200F052F8274B0420191C002200F04CF8244B0320191C002200F046F8214B0220191C0022D9
:400DC00000F040F81E4B0120191C002200F03AF81B4B0020191C002200F034F8032001F0FFF996235B00052000211A1C00F02AF896235B00042000211A1C00F023F89623CE
:400E00005B00032000211A1C00F01CF896235B00022000211A1C00F015F896235B00012000211A1C00F00EF896235B00002000211A1C00F007F8642000F044FD9AE7C04617
:400E4000FFFF000080B584B000AF3960111CFB1D021C1A703B1D0A1C1A800023FB60FB1D00229A56FB68D2183B68101C00211A1C01F094F93B1D00229B5E181C00F022FD6F
:400E8000012001F067F8C04601F0B4F8031EFBD0C046BD4604B080BD90B583B000AF00237B60FB1C00221A7026E1FB1C1B78181C02F03AFD031C0C1C181C211C00228023C5
:400EC000DB0501F05DFE031C0C1C00209B491A1C231C02F079F9031C0C1C181C211C01F031FE031C181C00F0EDFC002001F044FA012001F041FA00F05BFD00F0E9FD00F0F4
:400F00006FFF00F0E9FE8E4B181C00F023FF8D4B1B78002B0DD08B4B00221A708A4B9B699AB28A4B1B889BB2D3189BB2181C00F0A3FD00F093FD031C7B6000F04BFDFB1CA9
:400F40001B7801221340DBB2002B68D1FF231B040020191C0122FFF775FFFF231B040120191C0122FFF76EFFFF231B040220191C0122FFF767FFFF231B020320191C012266
:400F8000FFF760FFFF231B020420191C0122FFF759FFFF231B020520191C0122FFF752FF322000F08FFC002001F0B8F8012000F0D1FFC04601F01EF8031EFBD0322000F026
:400FC00081FCFF231B040020191C0122FFF73AFFFF231B040120191C0122FFF733FFFF231B040220191C0122FFF72CFFFF231B020320191C0122FFF725FFFF231B02042097
:40100000191C0122FFF71EFFFF231B020520191C0122FFF717FF322000F054FC67E0FF231B040320191C0122FFF70CFFFF231B040420191C0122FFF705FFFF231B040520CA
:40104000191C0122FFF7FEFEFF231B020020191C0122FFF7F7FEFF231B020120191C0122FFF7F0FEFF231B020220191C0122FFF7E9FE322000F026FC002001F04FF8012075
:4010800000F068FFC04600F0B5FF031EFBD0322000F018FCFF231B040320191C0122FFF7D1FEFF231B040420191C0122FFF7CAFEFF231B040520191C0122FFF7C3FEFF235A
:4010C0001B020020191C0122FFF7BCFEFF231B020120191C0122FFF7B5FEFF231B020220191C0122FFF7AEFE322000F0EBFBFB1C1A78FB1C01321A70FB1C1B780A2B00D893
:40110000D3E6114B1B7F032B02D90F4B00221A770D4B1B7F5A1CD1B20B4A11770A4A991C890078688850084A02339B009A58064B9A61C046BD4603B090BDC04600004E40DB
:40114000DD0200002A010020FC0000202801002080B500AF0E4B0022DA7700F01BF8031C1A1C0B4B5A7700F015F8031C1A1C084B9A77074BDB7F0133DAB2054BDA77044B9F
:401180005A7F034B9B7F9A42E7D0C046BD4680BDFC00002080B582B000AF00233B60FB1D00221A70002001F0E7F8012001F0E4F800F0FEFB00F08CFC00F012FE00F08CFDA9
:4011C000164B181C00F0C6FD154B1B78002B0DD0134B00221A70134B9B699AB2124B1B889BB2D3189BB2181C00F046FC00F036FC031C3B6000F0EEFB3B680122134003D167
:40120000FB1D00221A7002E0FB1D01221A70FB1D1B78181CBD4602B080BDC046DD0200002A010020FC0000202801002080B582B000AFFB1D00221A70464B5B7F002B42D15A
:40124000454B02221A70444B01225A70FB1D00221A702EE0FF231B040020191C0122FFF7F1FDFF231B040120191C0122FFF7EAFDFF231B040220191C0122FFF7E3FDFF23FB
:401280001B020320191C0122FFF7DCFDFF231B020420191C0122FFF7D5FDFF231B020520191C0122FFF7CEFDFB1D1A78FB1D01321A70FB1D1B78022BCCD9264B5B685A1C21
:4012C000244B5A6041E0244B01221A70224B02225A70FB1D00221A702EE0FF231B040320191C0122FFF7AEFDFF231B040420191C0122FFF7A7FDFF231B040520191C0122E9
:40130000FFF7A0FDFF231B020020191C0122FFF799FDFF231B020120191C0122FFF792FDFF231B020220191C0122FFF78BFDFB1D1A78FB1D01321A70FB1D1B78022BCCD967
:40134000044B1B685A1C034B1A60C046BD4602B080BDC046FC0000201C01002080B500AFFEE7C04680B586B000AF224B7B61224B3B61204B7B6135E03B691B68FB603B6949
:401380005B68BB603B699B683B6000237B600CE0FB681A68BB681A60BB680433BB60FB680433FB607B6804337B607A683B689A42EED13B69DB683B6000237B6008E0BB6897
:4013C00000221A60BB680433BB607B6804337B607A683B689A42F2D13B6910333B617B69013B7B617B69002BC6D102F04FFCFEF7C3FFFEE701000000B042000080B582B06B
:4014000000AF00237B600FE07B68032B04D8104B7A689200D35800E00E4B0F4A796889008B507B6801337B607B682F2BECD9FEF757FE0A4B00221A608023DB058022D20527
:40144000126801210A431A60BD4602B080BDC046000000005D13000000000020C000002080B582B000AF786039607A683B68101C00211A1C02F030FCBD4602B080BDC046FC
:4014800080B586B000AF7860396000233B6100237B612FE07B699B007A68D3181B68BB600F23FB18BA681A70BB68FF229343BB6018E03B695B003A68D3181B781A1CBB6854
:4014C000D318191C3B695B003A68D3185B780B703B6901333B610F23FB181A780F23FB18013A1A700F23FB181B78002BE1D17B6901337B617B69092BCCD9BD4606B080BD41
:4015000080B500AF034B044A1A60012000F006F8BD4680BD00031A402080000080B584B000AF021CFB1D1A700B4B1B68FB60FB1D1B78002B05D0FB68802212061343FB60E0
:4015400003E0FB685B005B08FB60034BFA681A60BD4604B080BDC04680031A4090B585B000AF78600C23FC1801F050FA031C23707B68022B00D8B4E07B68302B00D9B0E0B7
:401580005E4B1B78DBB21A1E7B689A420AD35C4A0F23FB1812781A705A4A0E23FB1812781A703FE0584B1B78DBB21A1E7B689A420AD3564A0F23FB1812781A70544A0E2315
:4015C000FB1812781A702DE0524B1B78DBB21A1E7B689A420AD3504A0F23FB1812781A704E4A0E23FB1812781A701BE04C4B1B78DBB21A1E7B689A420AD34A4A0F23FB18E4
:4016000012781A70484A0E23FB1812781A7009E0464A0F23FB1812781A70454A0E23FB1812781A707B68DA1E0B23FB1841498A5C1A700B23FB181B782F2B0DD97B682A2B91
:401640000AD93D4B19221A60052001F0D5F90D23FB1819221A7007E0374B1B68DAB20D23FB183F210A401A700B23FA180D23FB1812781B789A4208D22F4B7A68033A2D490A
:401680008A5C1A60052001F0B7F97B68284A9A180A23FB1812781A70284B0A22BA1812781A60274B0F22BA1812781A60254B0E22BA1812781A60052000F028F90B23FA18CF
:4016C0000D23FB1812781B789A4209D91A4B7A68033A18498A5C1A60052001F08DF903E002E0002000F0E4F80C23FB181B78181C01F090F9BD4605B090BDC046C0F1FF0FED
:40170000C1F1FF0FC2F1FF0FC3F1FF0FC4F1FF0FC5F1FF0FC6F1FF0FC7F1FF0FC8F1FF0FC9F1FF0FCAF1FF0FCBF1FF0FCCF1FF0FCDF1FF0F3C4000002CFF0B4028FF0B4037
:401740001CFF0B4020FF0B4080B582B000AF7860134B134A126802218A431A60114B114A12681E218A43111C7A6852001E2002400A431A600B4B0B4A126801210A431A6019
:40178000FA239B00181C00F0C1F800F00DF8044B034A126802210A431A60BD4602B080BD08000B4018000B4080B500AF024B02221A60BD4680BDC04604000B4080B584B02A
:4017C00000AF021C3960FB1D1A7080239B05FB60FB1D1B781F2B02D9002000F069F8FB1D1B7810339B00FA68D3181B68BB60FB1D1B7810339B00FA68D3183A681A60BB6879
:40180000181CBD4604B080BD90B587B000AF021CFB1D1A70BB1D0A1C1A70BB1D1B78032B02D9002000F044F8FB1D1B781F2B02D9002000F03DF8FB1D1B7803221340DB003A
:4018400006337B611323FC1801F0E0F8031C2370FB1D1B789B08DBB29B00144A944663441B68FB607B6903229A40131CDA43FB681340FB60BB1D1A787B699A40131CFA6862
:401880001343FB60FB1D1B789B08DBB29B00074A94466344FA681A601323FB181B78181C01F0B8F8BD4607B090BDC04600E400E080B582B000AF021CFB1D1A7001BEBD4639
:4018C00002B080BD80B582B000AF786009E00C4B1B68181C01F090F87B680A4A944663447B607A6880231B029A42F0D8064B1B687A685343181C01F07FF8BD4602B080BDE8
:40190000D80000200080FFFFD000002080B582B000AF021CBB1D1A80BB1D1B88044A12785343181C01F068F8BD4602B080BDC046D400002090B583B000AFFC1D01F066F8B2
:40194000031C2370074B074A126804218A431A6030BFFB1D1B78181C01F05CF8BD4603B090BDC04610ED00E080B500AFD8235B01181C00F097F8064B181C00F07DF8044B0C
:40198000181C00F035F800F005F8BD4680BDC046FF1F000080B500AF044A044B1B78DBB201210B43DBB21370BD4680BD71000F4080B500AF064B1B78002B04D1FFF7D4FFD3
:4019C000034B01221A70FFF7E5FFBD4680BDC0462C01002080B500AF044A044B1B78DBB201218B43DBB21370BD4680BD71000F4090B585B000AF021CBB1D1A80BB1DBA1D76
:401A00001288D204D20C1A800F23FC1800F0FEFF031C23700E4A0E4B1B78DBB203210B43DBB213700B4A0B4B1B78DBB203210B43DBB213700F23FB181B78181C00F0EAFF54
:401A4000054ABB1D1B881380BD4605B090BDC04692000F4093000F4084100F4080B500AF044B1B889BB2DB04DB0C9BB2181CBD4680BDC04604100F4080B582B000AF021C11
:401A8000BB1D1A80BB1DBA1D1288D204D20C1A80034ABB1D1B881380BD4602B080BDC04604100F4080B582B000AF021CBB1D1A80BB1DBA1D1288D204D20C1A80034ABB1D05
:401AC0001B881380BD4602B080BDC04644100F4080B500AF064B1B78002B04D100F00AF8034B01221A7000F0E3F8BD4680BDC0462D01002080B584B000AF0E200321FFF7A1
:401B000083FE524B0E20191CFFF758FE504B01221A60504B1B68002B01DA4F4900E04F494F4B4F4A12680A431A604E4B4E4A1A604E4B4F4A1A604F4B00221A604E4B4F4A39
:401B40001A604F4B4D4A1A604E4B00221A604E4B00221A604D4B01221A604D4B02221A604C4B1B687B607B684B4A13407B607B68012213437B60474B7A681A600023FB602D
:401B80005EE080235A00DC239B0113407B60FB689B00424A944663447A681A6080235B000122134009D0374B364A1268F96801208840011C89B20A431A6080235B00022266
:401BC000134009D0304B304A1268F96801208840011C89B20A431A6080235A0080239B00134003D080235B00BB6002E080235B01BB6080235A0080235B00134005D1284BD4
:401C0000FA6852000021D15204E0254BFA6852000021D152BB68234A53438022D20094466344002B02DA204A94466344DB129BB219B21E4BFA689200D150FB680133FB60DE
:401C4000FB68002B9DD0BD4604B080BD391D000020001A4080031A40400210534002005300001A4004001A400C00008018001A400000FF071C001A4010001A4004000400EA
:401C800014001A4028021A4038021A4018021A40000F1A4030001A40FFFFFFDF80001A404C01002010270000FF0700005001002080B500AF074B1B68002B09DB054B054AFF
:401CC0001268802109060A431A600A20FFF71EFEBD4680BD00001A4080B500AF044B044A1268802149020A431A60BD4680BDC04604001A4080B584B000AF78607B68002BCD
:401D000002D00020FFF7D4FD7B68002B09D17B689B00084A944663441B681B041B0CFB6001E00023FB60FB689BB21BB2181CBD4604B080BD80011A4080B582B000AF044B49
:401D40001B687B60024B7A681A60BD4602B080BD10021A4080B582B000AF786000F04AF87B68181C00F008F8032000F011F800F037F8BD4602B080BD80B582B000AF7860BC
:401D8000024B7A689A67BD4602B080BD0000002090B585B000AF021CFB1D1A701623FB600B23FC1800F032FE031C23700A4B0A4A12680A491140FA1D1078FA689040021C9A
:401DC0000A431A600B23FB181B78181C00F022FEBD4605B090BDC0460CE400E0FFFF3FFF80B500AF024B8022D2011A60BD4680BD00E100E080B500AF024B8022D2011A60AC
:401E0000BD4680BD80E100E080B500AF00F05AF8054B181C00F018F8012000F021F800F047F8BD4680BDC0462D1E000080B500AF00F048F8FFF7B8FC024B01221A70BD46D2
:401E400080BDC0462701002080B582B000AF7860024B7A685A67BD4602B080BD0000002090B585B000AF021CFB1D1A700E23FB600B23FC1800F0CAFD031C23700A4B0A4A1E
:401E800012680A491140FA1D1078FA689040021C0A431A600B23FB181B78181C00F0BAFDBD4605B090BDC0460CE400E0FF3FFFFF80B500AF024B802292011A60BD4680BD68
:401EC00000E100E080B500AF024B802292011A60BD4680BD80E100E080B500AF154B03221A70154B1D221A70144B18221A70144B0E221A70134B01221A700023181C00F016
:401F00001BF9104B00221A70002000F0ADF9002000F066F90C4B1B78002B06D10A4B01221A700A4B181C00F0CDF9094B01221A60BD4680BD91000F4041000F4021000F4023
:401F400031000F4070000F40300100201D2000007401002080B584B000AF78607B68002B05D01B4B00221A601A4B00221A70184B1A681949131C5B009B18DB005B58FB60AC
:401F8000164B1B681A1CFB68D3401A1C144B1B681340FB60134BFA68D2B21A70FB681B0AFB60104BFA68D2B21A70FB681B0AFB600C4BFA68D2B21A700B4B01221A600B4B5C
:401FC00009221A700A4B00221A60BD4604B080BD3801002072000F4054010020700100206C01002040000F403401002070000F407401002080B500AF064B1B68002B04D0AB
:40200000054B00221A70012300E00023181CBD4680BDC0467401002070000F4080B500AF324B1B78DAB2324B1A70314B1B781A1C402313401BD02F4B1B685A1C2D4B1A60DD
:402040002C4B1B68002B0BD12B4A2A4B1B68DBB213702A4B21221A700020FFF77BFF42E0264B21221A70264B01221A603BE0254B1B68052B34D81F4B1968224B1A68501C12
:40208000204B186020480B1C5B005B185B009B189B001A581D4B1A601C4B1A681C4B1B68DA401C4B1B681A40184B1A601A4A174B1B68DBB21370154B1B681A0A134B1A609D
:4020C000154A124B1B68DBB21370104B1B681A0A0E4B1A60104A0D4B1B68DBB2137002E0064B11221A70BD4680BDC04660000F40400100203801002072000F4070000F4058
:4021000074010020340100205401002044010020700100206C01002040000F4080B582B000AF78607B68181C00F006F80120FFF711FFBD4602B080BD80B584B000AF786032
:402140000023FB6021E00023BB6018E01249FA68131C5B009B185B00BA689B189B007A685A500D49FA68131C5B009B185B00BA689B189B007A685A50BB680133BB60BB6878
:40218000052BE3D9FB680133FB60FB68002BDAD0BD4604B080BDC0465401002080B584B000AFF860B9607A60FB68002B13DBBB68002B10DBFB68052B0DDCBB68002B0ADCD2
:4021C0000649BA68131C5B009B185B00FA689B189B007A685A50BD4604B080BD5401002080B582B000AF78607B68022B0FD002D8012B05D020E0032B10D0042B15D01BE05C
:40220000124B134A1A60134B01221A601BE00F4B114A1A600F4B02221A6014E00B4B0F4A1A600C4B03221A600DE0084B0C4A1A60084B04221A6006E0044B0A4A1A60054BE4
:4022400000221A60C046BD4602B080BD6C0100207F7F7F00700100203F3F3F001F1F1F000F0F0F00FFFFFF0080B582B000AF78607B68002B0CD10E4B0E4A1A600E4B052267
:402280001A600E4B07221A600D4B20221A600CE0074B084A1A60084B05221A60074B07221A60074B20221A60C046BD4602B080BD800100206C400000780100208401002010
:4022C0007C01002080B582B000AF786000F04AF87B68181C00F008F8032000F011F800F037F8BD4602B080BD80B582B000AF7860024B7A689A65BD4602B080BD00000020BF
:4023000090B585B000AF021CFB1D1A701623FB600B23FC1800F07AFB031C23700A4B0A4A12680A491140FA1D1078FA689040021C0A431A600B23FB181B78181C00F06AFBED
:40234000BD4605B090BDC04604E400E0FFFF3FFF80B500AF024B40221A60BD4680BDC04600E100E080B500AF024B40221A60BD4680BDC04680E100E080B582B000AF021C72
:40238000FB1D1A70034AFB1D1B781370BD4602B080BDC04673000F4080B582B000AF786000F048F87B68181C00F008F8002000F011F800F035F8BD4602B080BD80B582B092
:4023C00000AF7860024B7A68DA64BD4602B080BD0000002090B585B000AF021CFB1D1A701E23FB600B23FC1800F010FB031C23700A4B0A4A126892009108FA1D1078FA6814
:402400009040021C0A431A600B23FB181B78181C00F000FBBD4605B090BDC04600E400E080B500AF024B08221A60BD4680BDC04600E100E080B500AF024B08221A60BD4671
:4024400080BDC04680E100E080B582B000AF786000F04AF87B68181C00F008F8022000F011F800F037F8BD4602B080BD80B582B000AF7860024B7A685A65BD4602B080BDB7
:402480000000002090B585B000AF021CFB1D1A700E23FB600B23FC1800F0B8FA031C23700A4B0A4A12680A491140FA1D1078FA689040021C0A431A600B23FB181B78181C6C
:4024C00000F0A8FABD4605B090BDC04604E400E0FF3FFFFF80B500AF024B20221A60BD4680BDC04600E100E080B500AF024B20221A60BD4680BDC04680E100E080B500AFEF
:40250000024B20221A60BD4680BDC04680E200E080B582B000AF786000F04AF87B68181C00F008F8022000F011F800F037F8BD4602B080BD80B582B000AF7860024B7A689A
:402540009A64BD4602B080BD0000002090B585B000AF021CFB1D1A701623FB600B23FC1800F054FA031C23700A4B0A4A12680A491140FA1D1078FA689040021C0A431A601F
:402580000B23FB181B78181C00F044FABD4605B090BDC04600E400E0FFFF3FFF80B500AF024B04221A60BD4680BDC04600E100E080B500AF024B04221A60BD4680BDC046EB
:4025C00080E100E080B500AF024B04221A60BD4680BDC04680E200E080B582B000AF786000F048F87B68181C00F008F8022000F011F800F035F8BD4602B080BD80B582B08B
:4026000000AF7860024B7A681A64BD4602B080BD0000002090B585B000AF021CFB1D1A700623FB600B23FC1800F0F0F9031C23700A4B0A4A1268C0218A43111CFA1D10787D
:40264000FA689040021C0A431A600B23FB181B78181C00F0DFF9BD4605B090BD00E400E080B500AF024B01221A60BD4680BDC04600E100E080B500AF024B01221A60BD4604
:4026800080BDC04680E100E080B500AF024B01221A60BD4680BDC04680E200E080B500AF094B812292041A60084B4C221A60002000F08EF8064B181C00F060F8002000F0A7
:4026C0004FF8BD4680BDC046000105402401054050C3000090B583B000AFFC1D00F096F9031C2370084B084A126801210A431A60FB1D1B78181C00F08DF90120182100F072
:402700004BF8BD4603B090BD0000054080B500AF064B1B78002B04D1FFF7C0FF034B01221A70FFF7D7FFBD4680BDC0464801002090B583B000AFFC1D00F068F9031C2370D8
:40274000064B064A126801218A431A60FB1D1B78181C00F05FF9BD4603B090BD0000054080B582B000AF7860034B7A681204120C1A60BD4602B080BD0801054080B582B0F3
:4027800000AF7860034B7A681204120C1A60BD4602B080BD1401054090B585B000AF786039600F23FC1800F031F9031C2370074B3A68796891400A1C1A600F23FB181B789E
:4027C000181C00F027F9BD4605B090BD0800054080B582B000AF7860024B7A681A60BD4602B080BD3801054080B500AF044B1B68DBB201221340DBB2181CBD4680BDC0467C
:402800000401044080B582B000AF084B1B68DAB2FB1D01210A401A70044BFA1D12781A60FB1D1B78181CBD4602B080BD1001044080B582B000AF786000F048F87B68181C04
:4028400000F008F8002000F011F800F035F8BD4602B080BD80B582B000AF7860024B7A681A65BD4602B080BD0000002090B585B000AF021CFB1D1A700623FB600B23FC18E3
:4028800000F0C4F8031C23700A4B0A4A1268C0218A43111CFA1D1078FA689040021C0A431A600B23FB181B78181C00F0B3F8BD4605B090BD04E400E080B500AF024B102233
:4028C0001A60BD4680BDC04600E100E080B500AF024B10221A60BD4680BDC04680E100E080B500AF094B812292041A60084B4C221A60002000F074F8FA239B00181C00F075
:4029000045F8002000F034F8BD4680BD400105406401054090B583B000AFFC1D00F076F8031C2370084B084A126802210A431A60FB1D1B78181C00F06DF80220182100F0D6
:4029400033F8BD4603B090BD0000054080B500AF064B1B78002B04D1FFF7C2FF034B01221A70FFF7D7FFBD4680BDC0464901002080B582B000AF7860034B7A681204120C9C
:402980001A60BD4602B080BD4801054080B582B000AF7860034B7A681204120C1A60BD4602B080BD5401054090B585B000AF786039600F23FC1800F029F8031C2370074BD0
:4029C0003A68796891400A1C1A600F23FB181B78181C00F01FF8BD4605B090BD0800054080B582B000AF7860024B7A681A60BD4602B080BD780105400230800804D0C046A3
:402A00000138FDD1C046C046C0467047EFF3108072B6704780F310887047C046C046C046002243088B4274D303098B425FD3030A8B4244D3030B8B4228D3030C8B420DD392
:402A4000FF22090212BA030C8B4202D31212090265D0030B8B4219D300E0090AC30B8B4201D3CB03C01A5241830B8B4201D38B03C01A5241430B8B4201D34B03C01A524111
:402A8000030B8B4201D30B03C01A5241C30A8B4201D3CB02C01A5241830A8B4201D38B02C01A5241430A8B4201D34B02C01A5241030A8B4201D30B02C01A5241CDD2C309E1
:402AC0008B4201D3CB01C01A524183098B4201D38B01C01A524143098B4201D34B01C01A524103098B4201D30B01C01A5241C3088B4201D3CB00C01A524183088B4201D33A
:402B00008B00C01A524143088B4201D34B00C01A5241411A00D20146524110467047FFE701B5002000F00CF802BDC0460029F7D003B5FFF775FF0EBC4243891A1847C04607
:402B40007047C04638B500220C4B041C0D1C00F05BFF002804D1201C291C00F0AFFE38BD064B0022201C291C00F02EFB00F0A6FE80231B069C466044F1E7C0460000E041A5
:402B8000F0B55F4656464D464446F0B40F0387B098464D003B0BCC0F061C924681469B466D0D01946BD0664B9D4235D080275B467F031F43F3009946624BFF00400F9C467D
:402BC00007430023BB46002665440093424617035000D20F53463F0B400D904600D172E0574A904267D080235B031F435346554A5B0FFF001F43944653460021DB006044E6
:402C00004246624092462D1A0E430F2E00D9A1E04D48B600805987465B461E4300D076E000239B469946023308260093CEE799464346BB4601930091009B022B6BD1019B8E
:402C40009A46002153460122002789461A403C4B00213F030C0D24053F0B27433B4C1B0527401F437F00D2077F0817434846391C07B03CBC90469946A246AB46F0BD0343AB
:402C80003ED05B46002B00D19CE1584600F0C6FE2823311C1B1A021C5F46D940083A97400B1C96403B439B46B1460023284D00262D1A00938AE7524603213A43A0D10027AB
:402CC000002302219CE752463A4315D0002F00D185E1381C00F0A2FE021C28215046891A131CC8405146083B99409F400B1C074317480021801A83E70027002301217FE797
:402D000000239B4699460133042600935EE703230C2600935AE7032B00D13CE2012B00D0BFE11A1C019B1A4000210023002789468EE700238027994600223F03004B87E7F4
:402D4000FF07000001FCFFFF4C420000FFFF0F800DFCFFFFBB4500D951E100D14CE14A46039200225C469046013D180E3F0238431B020193030C994603041B0C4946061CCA
:402D8000201C1F1C0093FFF74BFE021C7A4302904946201C171CFFF7C9FE039B09041B0C19438F420CD9029B8919013B8E4200D952E18F4200D84FE1029B8919023B02937D
:402DC000CC1B201C4946FFF72BFE009F834647434946201CFFF7AAFE039A0B041404240C23439F420DD95A469B19013A9E4200D930E19F4200D82DE10222524294469B1920
:402E0000E344029ADB1B17045A463A439346019C170C220C101C04925A4611042204120C141C090C7C4305924A43414347436118100C09188C4203D9802040028446674432
:402E40000C0C12040804120C3C198118A34200D2E5E000D1DFE01F1B43465C1AA04592415242BF1AB74200D10EE1381C4946FFF7D7FD009B029043434946381C9846FFF7D2
:402E800055FE230C0F041F43B8450CD9029BBF19013BBE4200D9FBE0B84500D8F8E0029BBF19023B02934346FF1A4946381CFFF7B7FD009B039043434946381C9846FFF746
:402EC00035FE24040904240C214388450CD9039B8919013B8E4200D9DCE0884500D8D9E0039B8919023B03934346C91A029B039A1B04059C1A43100C13049146221C049F24
:402F00001B0C5A4344437B437843E318170CDB199C4203D980246402A44660441C0C12041B04120C00199B18814200D296E000D1FCE04A4601231A4391469B4BEB18002B6E
:402F400000DC99E04A4652070AD00F2249460A40042A05D00431494592418946524293445A46D20106D55A46904B1A4080239346DB00EB188E4A934200DD62E64A465946DE
:402F8000D208490711435A4689465702514601225B053F0B5B0D0A405AE680205A460003024208D0074206D107433F0399463F0B4246804B4CE65F4607433F033F0B221C03
:402FC0007C4B45E600F02AFD031C2030272800DC5EE6083B9E400023B346994665E6504600F01CFD021C2032272A00DC75E657460838874000237BE6994500D2AFE65A46DF
:40300000594654084A46C8075208024303924A46D2079046A9E60027884500D31CE7019F5A46BC46E044B845BF417F42BF19FF18013ABE4206D2BC425FD800D19FE03F1B65
:40304000934609E7B742FAD1019B4345F3D9371B934601E79346D4E60293B1E64A468919013A8E4218D99146814200D061E7019A9A4200D05DE760E74F4F7F1B382F13DDC0
:40308000012253461A404FE601235B42994654E7029308E7039327E788423CD874D0914647E7019B9A4648E71F2F44DC434B4A469C465B466544FA40AB4013434A46AA4043
:4030C000151C6A1E95415A46FA402B43171C5A0709D00F221A40042A05D01A1D9A429B415B42FF18131C3A023ED55346012200211A40002701238946AAE502235B429C4659
:40310000019AE3449446E04490459B415B429B19DF193F1BA0E6019F4A467C00BC42BF417F42BF19023AC91901949CE7002B95D1002201929BE75A46214B5B1BDA40202FC9
:4031400027D0204B9C465B466544AB4049460B43591E8B411343072200271A4007D00F2200271A40042AB8D17A077F023F0BDB0813439946012253461A40002368E5414506
:40318000BBD89346002767E6019C9C42C3D391466DE70023DAE780275B463F031F433F033F0B019A034B53E5FF030000FFFFFFFEFE070000FF07000002FCFFFF1E04000050
:4031C000E2FBFFFF3E040000F0B54D4644465F465646F0B40E1C111C3203520A470F1743C5001A035800DB0F9946520A4B0F83B01A43CB000193CF4B7400F60F640DB046D1
:40320000400D984200D1E8E00123494659400B1C9E4200D1B1E0261A002E00DC1CE1002842D1131C01990B4300D0E6E06B0700D18EE00F232B40042B00D189E02A1DAA4200
:40324000AD418023012641466D427F191B043B400E40151C002B00D183E0B64B01349C4200D116E13A1CB44BED081A405007640552020543120B640D002112030B0D1B0578
:403280006405120B1A436308AC4CF60714401C43640064083443281C211C03B03CBC90469946A246AB46F0BDA24B9C42BED080231B041A43382E00DD03E11F2E00DD3FE181
:4032C0002020831B9946131C49468B409C46019B6046F34003430198F2408840011C481E81410B43EB1A9D4280411D1CBA1A4042171A3B0200D4A8E07A02560A002E00D1EC
:40330000CAE0301C00F08AFB031C083B1F2B00DDCBE02822291C121AD1409E400A1C9D4032439C4200DDC8E01C1B671C1F2F00DDEDE01F23291C1C1B131CA540A340F940C9
:403340006C1EA541FA4019430D43171C00246DE78023012642461B043B401640002B00D07BE7744BED0878070543FA089C423BD012036405120B640D7EE7231A9A46002B8E
:4033800000DCA5E0002844D06A48844200D14DE78020000402435346382B00DC1CE1019B1A43511E8A41D1B200224919A94280410D1CD219404217183B0246D55D4B013455
:4033C0009C4200D169E101205B4A6B083A4028401843D5070543570828E7131C01990B4300D111E74B4613E72B1C134351D080231B031A431203120B3EE7013E002E00D0F1
:4034000080E0691A8D429B41BA1A5B42D71A0D1C6FE7101C019B184300D107E701235B429C46E2445346002B00D002E1019BD2195919A9429B415B42D7180D1CBCE763463A
:40344000034300D128E1071C65466B0700D0F0E6012643461E4084E7002E00D081E0601C4005400D012800DC07E10199681A84466545B641B81A7642861B300200D4A1E03A
:403480008C464D1BAC458941D21B4942561A984634E700220025EFE6281C00F0BFFA2030031C083B1F2B00DC33E7021C283A95402A1C00259C4200DC36E71F4FE41A1740E1
:4034C000B4E6019B1A43511E8A41D3B2002209E7002B00D001E1601C43055B0D012B00DCB0E0144B984200D11EE1019BD2195919A9429B415B42D2184908D5070D4357089B
:40350000041C93E60B4B9C4200D0D3E68EE6211C131C1F39CB40191C202F00D18EE03F231C1BA24015436A1E954100270D4300248BE7C046FF070000FFFF7FFFFFFF0F80DC
:40354000331C101C203BD840202E79D040239B1B9A40131C019A1343591E8B4100220343C0E6002C53D0C74CA04200D1B0E0802471428946240427434946382900DDCDE08B
:403580001F2900DD59E120243E1C611A8E408A46B04649462E1CCE405146B4468D4064464646494626436C1EA541CF4035430199D71B8C464D1BAC4592415242BF1A041C7E
:4035C000984696E663466546334300D096E60026002700240025C4E61F2B61DC2020C31A9B46131C59468B4051469946019BCB409C464B46604603439C465B46019999408B
:403600006346481E814119435346DA40CDE63C1C2C435DD0F1438946002955D10199D21B8C464D1BAC4589414942571A041C98465FE69448844200D0ADE6F7E5002271E79B
:40364000002387E73B1C2B43002C00D0DAE0002B00D113E1131C01990B4300D1E6E54919A9429B41D2195B42D7183B0200D421E1854B0D1C1F40041CD8E5381C2843002CC8
:4036800040D1002800D083E0101C0199084303D0171C0D1C9846C9E500260027002560E65046131C2038C340181C5346202B00D1C1E0402351465B1A9A40019911434A1ED1
:4036C00091410022014370E66E4CA04200D053E7171C019D041C9846A8E5002C28D13C1C2C4300D18AE0DB439A46002B00D082E0019BD2199C4665449D4289414942571803
:40370000041C59E600285BD1101C0199084300D1A4E0171C0D1C98465A4C87E53D436F1EBD410027EDB242E7041C0027002518E6544CA04262D0534680245B429A4624042A
:4037400027435346382B00DD8EE01F2B00DD9DE02024E31A9B463B1C59468B40514699462B1CCB409C464B46644623439C465B469D4063466C1EA541CF401D43019BBF186B
:403780009C4665449D4292415242BF18041C13E6101C0199084300D148E5681A844685428041BE1A4042301A060200D447E68C464D1BAC458941D21B4942571A984635E5E2
:4037C000101C0199084334D080247807ED08FF0824032843274208D0D608264205D1C90852070A43101C371C9846FF00420F1743C500244C1AE5234CA042A2D1171C019D5F
:40380000041C13E5002B35D0131C01990B4310D080247807ED08FF08240328432742E4D0D3082342E1D1C90852070A43101C1F1CDBE7144CFAE400223FE74C463E1C203C1B
:40384000E6404946341C202932D04026761AB7403D436F1EBD4100272543A8E680270026FF03084C00257CE53D436F1EBD410027EDB283E7171C019D024CD7E4171C019D54
:40388000D4E4C046FF070000FFFF7FFF54463B1C203CE3401C1C5346202B0DD0402351465B1A9F403D436F1EBD410027254365E70027CDE70D1CC8E50027F3E70B0330B586
:4038C000134C1A0B4B00051C5B0DC90F0020A34210DD104883420EDC80200F4C40030243E41A1F2C0ADD0D48C31ADA40131C48424340581830BD0A4BC818FBE7281CE0408C
:40390000084CA44663449A40131C0343EFE7C046FE0300001D0400003304000013040000FFFFFF7FEDFBFFFF38B5041E16D0C50F00D04442201C00F071F8174B1B1A0A2828
:4039400021DC021C211C153291400A1C0B21081AC4405B052403240B5B0D03E000250023002400220021101C24030A0D1205240B14430A4A1B0514401C436400ED076408BD
:403980002C43211C38BD0B3884405B052403240B5B0D0022E6E7C0461E040000FFFF0F808446101C62468C46191C634600E0C0461FB500F005F9002801D40021C8421FBDA3
:4039C00010B500F049F84042013010BD10B500F0F7F8002801DB002010BD012010BDC04610B500F0EDF8002801DD002010BD012010BDC04610B500F073F8002801DC002002
:403A000010BD012010BDC04610B500F069F8002801DA002010BD012010BDC0461C2101231B04984201D3000C10391B0A984201D3000A08391B09984201D30009043902A26E
:403A4000105C40187047C04604030202010101010000000000000000F0B55F464D4644465646F0B41F035C00DB0F99461B4B0E034D00C90F8446360B6D0D8B4690463F0BB6
:403A8000640D9D420CD0154B9C4210D00123A54214D0181C3CBC90469946A246AB46F0BD311C01230143F4D10C4B9C42EED13A430123002AEDD10123A542EAD1BE42E8D1F0
:403AC000C445E6D1CB4506D0002DE2D13043031C581E8341DDE70023DBE7C046FF070000F0B5574645464E46E0B40F034E00C90F8A4632491D035C0084463F0B760D90465E
:403B00002D0B640DDB0F8E420FD08C4239D0002E10D13843414241418946002C27D12A4325D1002000290ED108E0391C01432ED1B44226D0002C0BD09A450DD053465942FC
:403B400001231943081C1CBC90469946A246F0BD2A43F3D09A45F1D1A642EFDC1ADA504641424841012341421943081CEBE74A46002AE1D058425841012241421143081CB0
:403B8000E1E7291C114302D1002EC2D0D4E702204042D8E7AF42D1D809D00020AF42D2D2504641424841012340421843CBE7C445C4D80020C445F3D3C5E7C046FF0700002A
:403BC000F0B55F464D46444656468046F0B4061C0803000B84462C484C001F035D00C90F640D8B4691463F0B6D0DDB0F844212D0854225D0002C14D161460E4370424641D2
:403C0000002D35D0002E21D058425841012143420B43181C0EE06146022031430AD1A5420ED0002D12D13A4310D15B46594201231943081C3CBC90469946A246AB46F0BD8B
:403C4000391C02201143F5D1002CD5D09B45ECD1AC42EADC05DBBC45E7D80FD00020BC45E8D2584641424841414201200843E1E73A43C7D10020002EDCD1D6E7C845D4D850
:403C80000020C845EDD3D5E7FF0700000E4B70B500251E1C0D4CE41AA410A54204D0AB00F35898470135F8E700F0F0FA084B00251E1C084CE41AA410A54204D0AB00F35885
:403CC00098470135F8E770BD984200009842000098420000A0420000031C8218934202D019700133FAE7704700000000E003000042050000D80500000E06000074070000E8
:403D000040080000280A00000C09000000300F40000400400F40000404000F4059300F4040310F4070320F404C330F400F400F400F410F4002420F4003430F4002600F401E
:403D4000011811182114310C001C08040A180E02100812141410160C17011A011E0322012E02300332043408350136103E55403245BE47C0482349FF4AFF4BFF58045904DB
:403D80005A045B045D095F0162C064406501828984A48504865A8790886D8A128B578E4991029320970899579A499B089E21A021A410A602A9A0AA49AB5FAD01B0C0B20703
:403DC000B3C0B438B50FB730B808BA02BB88C036C505C620C701C819C9FFCAFFCBFFCDA0D201D804D904DA04DB09DC99DD99DF01E040E140E2C0E4C0E6C000A00380051560
:403E0000070208E009150C600D401201138115021608171818221A081B021D151E101F01222027162E102F013208351037063E083F2040044304450849024B044D044F2036
:403E4000510152015420571859205B8060A065206704684069806D4073097F0483028C11C0FBC2CFC479CA30CCE2CE60D046D220D60CD803DE20E240E64001100201042075
:403E800005100618080C09100A600E0214101508170719061A401B091E041F10200421022304250429022A012D102E023001310E321C346035013602371038083E413F403C
:403EC000400149FF4AFF4BFF4C024D0C4EF85608580459045A085B045C995D995F01624863A168F06AF06CF06EF0800D8202840D8602870888018A228C0D8E42900D9202F4
:403F0000940D9612980D9A029B029C029E0D9F04A004A222A40DA602A80DAA02AC08AE22AF01B020B104B240B301B410B508B60FB702BA80C001C9FFCAFFCBFFCC03CD0CF0
:403F4000CEC4D804D904DA0BDB04DD09DF01E248E3A1E8F0EAF0ECF0EEF00020028203200514074208100A610D480E0810021102120813041542172018081A611BA11C44A0
:403F80001D881E08228A2304255027802B012D062F0A301032A03514378038083D113E044180434045805C405F206401670A6B026D116E046F0278017F0180028105841070
:403FC000894091C69404970899169B20A220A308A410A51DA608A780AB20B204C0FFC2EFC4DFCAF8CC7CCEE2D018D630D830DE11EA8018016F027004714077087B407C4006
:4040000083408C408F02C640DA80DCE0DE60E22003120740230824088350870294089F08A801B140C070C830E030E480E8805E04D6018A049604E404100111010304050696
:404040000708090A0B0C0E0F101112131415161718191B1C1D1E1F2021222325262728292A2B2E2F3031323334350000000000000000005F00000007000700147F147F14BB
:40408000242A7F2A12231308646236495522500005030000001C2241000041221C00082A1C2A0808083E080800503000000808080808006060000020100804023E51494506
:4040C0003E00427F400042615149462141454B311814127F1027454545393C4A49493001710905033649494936064949291E0036360000005636000000081422411414143B
:40410000141441221408000201510906324979413E7E1111117E7F494949363E414141227F4141221C7F494949417F090901013E414151327F0808087F00417F41002040F9
:40414000413F017F081422417F404040407F0204027F7F0408107F3E4141413E7F090909063E4151215E7F09192946464949493101017F01013F4040403F1F2040201F7F93
:404180002018207F63140814630304780403615149454300007F4141020408102041417F000004020102044040404040000102040020545454787F48444438384444442056
:4041C000384444487F3854545418087E090102081454543C7F0804047800447D40002040443D00007F10284400417F40007C041804787C0804047838444444387C1414146A
:4042000008081414187C7C080404084854545420043F4440203C4040207C1C2040201C3C4030403C44281028440C5050503C4464544C44000836410000007F00000041367A
:40424000080008082A1C08081C2A0808542D0000422C0000282D00002E2C0000282D0000322D0000282D00002E2C0000422C0000422C0000322D00002E2C0000382C000080
:40428000382C0000382C00009A2F0000F8B5C046F8BC08BC9E467047A5020000FD130000F8B5C046F8BC08BC9E4670477D020000C0420000C800002018000000A800000001
:4042C0000000000000366E01C05D0000180000000000E02E0000000000000000000000000000000000000000000000000000000000000000000000000000000000000000D6
:40430000000000000000000000000000000000000000000000000000000000000000000000000000000000000000000000000000000000000000000000000000000000007D
:40434000000000000000000000000000000000000000000000000000000000000000000000000000000000000000000000000000000000000000000000000000000000003D
:4043800000000000000000000000000000000000000000000000000000000000000000000000000000000000000000000000000000000000000000000000000000000000FD
:4043C00000000000000000000000000000000000000000000000000000000000000000000000000000000000000000000000000000000000000000000000000000000000BD
:0200000490303A
:020000007CD0B2
:0200000490501A
:0C00000000020464119311010465594DC5
:00000001FF
